:020000040000FA
:04000000DBEF02F040
:020004000000FA
:0A00060004EE00F0000EF86E090E83
:10001000F76E0A0EF66E090E0B6E0900F5CFEEFFB5
:1000200009000B2EFAD704EE09F0000EF86E090E47
:10003000F76E1C0EF66E270E0B6E0900F5CFEEFF65
:1000400009000B2EFAD704EE30F0000EF86E090E00
:10005000F76E520EF66E090E0B6E0900F5CFEEFF2D
:1000600009000B2EFAD704EE39F0000EF86E090ED7
:10007000F76E640EF66E090E0B6E0900F5CFEEFFFB
:1000800009000B2EFAD705EE00F0000EF86E090EEF
:10009000F76E760EF66E0F0E0B6E0900F5CFEEFFC3
:1000A00009000B2EFAD7000EF86E090EF76E940EAB
:1000B000F66E0F0E0B6E0900F5CFEEFF09000B2E4A
:1000C000FAD7000EF86E090EF76EB20EF66E0F0E2E
:1000D0000B6E0900F5CFEEFF09000B2EFAD7000ECC
:1000E000F86E090EF76ED00EF66E0A0E0B6E090052
:1000F000F5CFEEFF09000B2EFAD7120024C008F04E
:1001000025C009F00A6EFF0E0A6201D00BD007EE7F
:1001100000F0090E24022550F324EBCF07F097ECF2
:1001200000F012000A0E076E97EC00F01200095062
:1001300004EE00F0EBCF0DF0085004EE09F0EBCF29
:100140000CF004EE30F0EBCF0EF004EE09F00850A6
:10015000120FEBCF0FF0D8EC00F0050E1A6E10EE78
:1001600015F0000FE6361A2EFCD70F2EF6D7E7EC67
:1001700000F004EE09F00850090FEBCF0FF0050E68
:100180000F6201D01200085004EE39F0EBCF0EF0F0
:100190000C2AD8EC00F0050E1A6E10EE15F0000FC8
:1001A000E6321A2EFCD70F2EF6D7E7EC00F012003D
:1001B000050E1A6E10EE15F005EE00F0050E0702A2
:1001C000F350EBCFE6FF010F1A2EFBD712000C50B5
:1001D00072EC06F00D5076EC06F020EE10F0050EF5
:1001E00019EC06F0050E1A6E20EE10F010EE15F068
:1001F00000EE10F00E50EE16E650DE261A2EFAD75C
:100200000D5076EC06F020EE10F0050E08EC06F02E
:100210001200000E7AEC06F0000E84EC06F023EEDD
:1002200000F00C0EA7EC01F06BEC02F023EC02F0F6
:100230002FEC02F03BEC02F0C1EC01F047EC02F0D5
:100240002FEC02F077EC02F00D0EA7EC01F023EE9C
:1002500000F0400E12EC06F0010E7AEC06F0000EF3
:1002600084EC06F023EE00F00F0EA7EC01F0210E57
:10027000316E010EDE6E312EFDD7100EA7EC01F0AF
:1002800023EE00F0400E12EC06F01200070E7AEC9E
:1002900006F0000E84EC06F023EE00F00A0EA7EC48
:1002A00001F053EC02F05FEC02F0B5EC01F083ECEE
:1002B00002F03BEC02F05FEC02F047EC02F00A0EB9
:1002C000A7EC01F01200030E7AEC06F0000E84ECAD
:1002D00006F023EE00F00D0EA7EC01F0B5EC01F0F6
:1002E000C1EC01F0CDEC01F0CDEC01F0D9EC01F066
:1002F000B5EC01F0E5EC01F0F1EC01F00C0EA7EC2F
:1003000001F023EE00F0400E12EC06F01200030E96
:100310007AEC06F0000E84EC06F023EE00F0120EEC
:10032000A7EC01F0FFEC01F0CDEC01F0C1EC01F025
:100330000BEC02F017EC02F0F1EC01F0110EA7EC5F
:1003400001F023EE00F0400E12EC06F01200316EC8
:10035000000EDE6E312EFCD71200316E0900F5CF93
:10036000DEFF0900312EFAD71200000EF86E090EDA
:10037000F76EE40EF66E040EADEC01F0000EDE6ECC
:100380001200000EF86E090EF76EEC0EF66E040EFB
:10039000ADEC01F0000EDE6E1200000EF86E090EDC
:1003A000F76EF40EF66E040EADEC01F0000EDE6E8C
:1003B0001200000EF86E090EF76EFC0EF66E040EBB
:1003C000ADEC01F0000EDE6E1200000EF86E0A0EAB
:1003D000F76E040EF66E050EADEC01F0000EDE6E4B
:1003E0001200000EDE6E000EF86E0A0EF76E0E0E94
:1003F000F66E010EADEC01F0000EDE6E1200000E86
:10040000F86E0A0EF76E100EF66E050EADEC01F0EA
:10041000000EDE6E1200000EF86E0A0EF76E1A0E57
:10042000F66E040EADEC01F0000EDE6E1200000E52
:10043000F86E0A0EF76E220EF66E040EADEC01F0A9
:10044000000EDE6E1200000EF86E0A0EF76E2A0E17
:10045000F66E040EADEC01F0000EDE6E1200000E22
:10046000F86E0A0EF76E320EF66E040EADEC01F069
:10047000000EDE6E1200000EF86E0A0EF76E3A0ED7
:10048000F66E040EADEC01F0000EDE6E1200000EF2
:10049000F86E0A0EF76E420EF66E040EADEC01F029
:1004A000000EDE6E1200000EF86E0A0EF76E4A0E97
:1004B000F66E040EADEC01F0000EDE6E1200000EC2
:1004C000F86E0A0EF76E520EF66E040EADEC01F0E9
:1004D000000EDE6E1200000EF86E0A0EF76E6C0E45
:1004E000F66E040EADEC01F0000EDE6E1200000E92
:1004F000F86E0A0EF76E740EF66E040EADEC01F097
:10050000000EDE6E1200000EF86E0A0EF76E5A0E26
:0E051000F66E090EADEC01F0000EDE6E12006C
:02051E00100EBD
:100520002F6E2F2EFED7120096680F01538D8D6A05
:10053000306A06EE00F0000EF86E0E0EF76E100E2A
:10054000F66E0F0E2D6E0900F5CFEEFF2D2EFBD7A8
:10055000000EF86E0E0EF76E200EF66E0F0E2D6E5C
:100560000900F5CFEEFF2D2EFBD712000F0E966E71
:100570008FEC02F084502E6EF00E966E8FEC02F02F
:1005800084502E26FF0E2E6202D0306A13D02E50D9
:10059000306201D00FD02EC030F006EE00F00F0E0A
:1005A0002D6EEE502E6203D00E0EEB5012002D2E4B
:1005B000F8D700D0FF0C7F9C7F8E94EC02F0E0EC2B
:1005C00005F009EC01F046EC01F026EC03F003EC39
:1005D00000F092EC03F0EDEF02F01DEC03F0B6EC4E
:1005E00002F01C6EFF0E1C6201D014D0FE0E1C62C5
:1005F0000DD000D078EC03F01C6E000E1C640AD005
:10060000010E1C6216D087EC01F004D01C5032ECB5
:1006100003F000D01B2A7F0E1B6203D0FF0E7EEC7E
:1006200000F0FE0E1B62D9D7000E1B6E7EEC00F0B0
:10063000D4D763EC01F01BEF03F0400E1D6EFF0EEC
:100640001E6E1E2EFED71D2EFAD71200410E276EEB
:10065000430E286E420E296E440E2A6E040E246E3E
:10066000256E1200266E26BC01D02DD0276201D047
:100670000AD0286201D00FD029621DD014D0FF0EFD
:100680007EEC00F01200000E246201D0F8D77EEC60
:1006900000F02406F4D7080E246201D0F0D77EECD7
:1006A00000F0242AECD7080E256201D0E8D77EECB2
:1006B00000F0252AE4D7000E256201D0E0D77EECB9
:1006C00000F02506DCD707EE51F0090E2402255074
:1006D000F324EB502B6E2B66120007EE00F0090E90
:1006E00024022550F32426C0EBFF7EEC00F012001C
:1006F000510E2C6E07EE00F0EE6601D00FD02C2EBE
:10070000FBD7510E2C6E07EE00F018EE00F0EE5005
:10071000E66206D02C2EFBD7020E1200000E12004D
:10072000010E1200A6EC06F008EE00F017EE51F0F4
:10073000C7EC03F0000E086E096E08EE00F017EE2D
:1007400051F027EE00F0090E08020950F324326E32
:10075000326601D005D0EE50E650DE50322EFBD787
:10076000E66601D006D0EE50DE6E076E97EC00F024
:1007700004D0000EDE6EEE5000D0092A090E096288
:10078000DCD7096A082A090E0862D7D71200000EC2
:10079000F86E0A0EF76E7C0EF66E58EC04F0000E42
:1007A000F86E0A0EF76E8E0EF66E58EC04F0000E20
:1007B000F86E0A0EF76EA00EF66E58EC04F0000EFE
:1007C000F86E0A0EF76EB20EF66E58EC04F0000EDC
:1007D000F86E0A0EF76EC40EF66E58EC04F0000EBA
:1007E000F86E0A0EF76ED60EF66E58EC04F0000E98
:1007F000F86E0A0EF76EE80EF66E58EC04F0000E76
:10080000F86E0A0EF76EFA0EF66E58EC04F0000E53
:10081000F86E0B0EF76E0C0EF66E58EC04F0000E30
:10082000F86E0B0EF76E1E0EF66E61EC04F0000E05
:10083000F86E0B0EF76E300EF66E61EC04F0000EE3
:10084000F86E0B0EF76E420EF66E61EC04F0000EC1
:10085000F86E0B0EF76E540EF66E61EC04F0000E9F
:10086000F86E0B0EF76E660EF66E61EC04F0000E7D
:10087000F86E0B0EF76E780EF66E61EC04F0000E5B
:10088000F86E0B0EF76E8A0EF66E61EC04F0000E39
:10089000F86E0B0EF76E9C0EF66E61EC04F0000E17
:1008A000F86E0B0EF76EAE0EF66E61EC04F01200F1
:1008B000090E326E0900F5CFEEFF0900322EFAD78D
:1008C0001200090E326E0900F5CFE6FF0900322E44
:1008D000FAD71200A6EC06F007EE00F0510E326EC9
:1008E000000EEE6E322EFDD708EE00F0510E326E85
:1008F000000EEE6E322EFDD707EE51F0510E326E25
:0A090000000EEE6E322EFDD712003D
:06090A00030009000F00CC
:1009100017001D0023002B003100370000000100EC
:1009200001000200030004000500060006000500A7
:10093000050001000100030005000500050001009D
:100940000300010007000700050003000300010089
:1009500007000700C1007F007F001F00070007009D
:10096000C1007F00FF00FF00F000F000FC00FF006E
:10097000FF00FF00F0000000000000000000000089
:10098000000012001F00100000001D0015001500DF
:100990001500170011001100150015001F000700B9
:1009A0000400040004001F001700150015001500C6
:1009B0001D001F001500150015001D00010001009D
:1009C0001900050003001F001500150015001F0089
:1009D00017001500150015001F001F001F001F0045
:1009E0001F001F0038004400440028003800440065
:1009F000440038007C001400340048007C0054009F
:100A000054004400040004007C00040004005C0066
:100A10007C002000100020007C007C0008001000FA
:100A20007C0038004400540030004800540054005A
:100A300024003C00400040003C007C004400440096
:100A400038007C00100028004400200040004000D6
:100A50003C00780014001400780010001000000022
:100A600038000800300000001000100010001000D6
:100A70001000F000F000100010001000010009004C
:100A80000800070005000600040003000200030040
:100A9000020006000100090004000800050007002C
:100AA0000500040007000300020008000100060022
:100AB000090002000600090005000100070003000C
:100AC00008000400070001000300040008000900FA
:100AD00005000200060004000800050006000300EF
:100AE00002000700090001000900030002000800DD
:100AF00004000100060007000500060005000400D0
:100B000009000700030002000100080008000700B8
:100B100001000200060005000900040003000100B6
:100B200000000100000000000100010000000000C2
:100B300000000000010000000100000001000000B2
:100B400001000100000000000000000000000000A3
:100B50000000000001000100010001000000000091
:100B60000000010000000000000000000100000083
:100B70000100000000000000000001000000000073
:100B80000000010001000100010000000000000061
:100B90000000000000000000000001000100000053
:100BA0000100000001000000010000000000000042
:100BB0000000010001000000000001000000010031
:100BC000936A956A836A8A6AA1EC06F08A8A8A9295
:100BD0008A90A1EC06F03F0E94EC06F0F6EC05F0DE
:100BE000C00E94EC06F08A828A901200046AB80E55
:100BF000041094EC06F0036A000E8EEC06F0032A53
:100C0000400E0364F9D7042A080E0462F0D71200DC
:100C10008A848A96056EDECF83FF9AEC06F0052E55
:100C2000FAD712008A928A8008EC06F08A828A90AB
:100C3000120095688A848A86056E9AEC06F08A8886
:100C4000A1EC06F083CFDEFF8A98A1EC06F0052E1A
:100C5000F6D7956A12006BEC06F0000E8EEC06F0EB
:100C60003E0E8EEC06F02A0E8EEC06F02A0E8EEC6E
:100C700006F02A0E8EEC06F03A0E8EEC06F0000E10
:100C80008EEC06F02E0E8EEC06F02A0E8EEC06F0A0
:100C90002A0E8EEC06F02A0E8EEC06F03E0E8EEC3E
:100CA00006F0000E8EEC06F01200046A400E94EC82
:100CB00006F0B80E041094EC06F0010E036E03501B
:100CC0008EEC06F0032A400E0364F9D7042A080EBE
:100CD0000462ECD71200B80E94EC06F0400E94ECCF
:100CE00006F01200B80994EC06F01200400994ECEA
:100CF00006F012008A928A80046EB80E041094ECFA
:100D000006F08A828A9012008A928A80036E400ED0
:100D1000031094EC06F08A828A901200836E8A8413
:100D20008A969AEC06F01200836E8A948A969AEC60
:100D300006F012008A88A1EC06F08A98A1EC06F071
:0C0D40001200100E006E002EFED71200F4
:040D4C00000E1F6E08
:100D5000FE0E206E020E216EE7EC06F0010E1F6EF5
:100D6000FF0E206E000E216EE7EC06F0020E1F6EE5
:100D7000FF0E206E200E216EE7EC06F0030E1F6EB4
:100D8000FF0E206E000E216EE7EC06F0040E1F6EC3
:100D9000FF0E206E000E216EE7EC06F0050E1F6EB2
:100DA000FF0E206E020E216EE7EC06F0060E1F6E9F
:100DB000FF0E206E000E216EE7EC06F0070E1F6E90
:100DC0003F0E206E200E216EE7EC06F012001F5041
:100DD00072EC06F0000E76EC06F0000E8EEC06F0DB
:100DE000030E226E20508EEC06F0130E236E21505F
:100DF0008EEC06F0232EFBD7222EF4D720508EEC5B
:100E000006F0000E8EEC06F0000E8EEC06F01200DE
:100E100077B7D77BBBDB7DBDDDE7DEED7EEEAA00DD
:100E20000102030405060708094142434400FE008D
:020000040030CA
:0100000015EA
:0100010013EB
:010002007F7E
:010003007F7D
:01000400F902
:010005008B6F
:010006009168
:01000800FFF8
:01000900C036
:01000A00FFF6
:01000B00E014
:01000C00FFF4
:01000D0040B2
:00000001FF
